{"contracts/verify.sol":{"cpLinkVerify":{"abi":[{"inputs":[{"internalType":"uint256[]","name":"_vk_link","type":"uint256[]"}],"stateMutability":"nonpayable","type":"constructor"},{"inputs":[{"internalType":"uint256[]","name":"instance","type":"uint256[]"},{"internalType":"uint256[]","name":"proof","type":"uint256[]"}],"name":"verify","outputs":[{"internalType":"bool","name":"","type":"bool"}],"stateMutability":"nonpayable","type":"function"}],"evm":{"bytecode":{"linkReferences":{},"object":"60806040523480156200001157600080fd5b5060405162000a3138038062000a3183398181016040528101906200003791906200028c565b80600090805190602001906200004f92919062000057565b5050620002dd565b82805482825590600052602060002090810192821562000096579160200282015b828111156200009557825182559160200191906001019062000078565b5b509050620000a59190620000a9565b5090565b5b80821115620000c4576000816000905550600101620000aa565b5090565b6000604051905090565b600080fd5b600080fd5b600080fd5b6000601f19601f8301169050919050565b7f4e487b7100000000000000000000000000000000000000000000000000000000600052604160045260246000fd5b6200012c82620000e1565b810181811067ffffffffffffffff821117156200014e576200014d620000f2565b5b80604052505050565b600062000163620000c8565b905062000171828262000121565b919050565b600067ffffffffffffffff821115620001945762000193620000f2565b5b602082029050602081019050919050565b600080fd5b6000819050919050565b620001bf81620001aa565b8114620001cb57600080fd5b50565b600081519050620001df81620001b4565b92915050565b6000620001fc620001f68462000176565b62000157565b90508083825260208201905060208402830185811115620002225762000221620001a5565b5b835b818110156200024f57806200023a8882620001ce565b84526020840193505060208101905062000224565b5050509392505050565b600082601f830112620002715762000270620000dc565b5b815162000283848260208601620001e5565b91505092915050565b600060208284031215620002a557620002a4620000d2565b5b600082015167ffffffffffffffff811115620002c657620002c5620000d7565b5b620002d48482850162000259565b91505092915050565b61074480620002ed6000396000f3fe608060405234801561001057600080fd5b506004361061002b5760003560e01c8063b864f5a914610030575b600080fd5b61004a600480360381019061004591906104af565b610060565b6040516100579190610542565b60405180910390f35b600061006e60008484610076565b905092915050565b60006100806102ea565b60008060006002875161009391906105bb565b9050600060068260066100a691906105ec565b6100b0919061062e565b67ffffffffffffffff8111156100c9576100c8610336565b5b6040519080825280602002602001820160405280156100f75781602001602082028036833780820191505090505b50905060208701602089018a835260208320945060005b6001850381101561019357816040820201518460c0830201528160206040830201015184602060c084020101526004810286015484604060c084020101526001600482020186015484606060c084020101526002600482020186015484608060c08402010152600360048202018601548460a060c0840201015260018101905061010e565b50815160c08460c08702010352602082015160a08460c0870201035260048085020385015460808460c087020103526003600485020385015460608460c087020103526002600485020385015460408460c087020103526001600485020385015460208460c0870201035260408201518360c086020152606082015183602060c087020101526004840285015483604060c087020101526001600485020185015483606060c087020101526002600485020185015483608060c08702010152600360048502018501548360a060c0870201015260208760c0600187010285600060086107d05a03f19550505083156102c0576040517f08c379a00000000000000000000000000000000000000000000000000000000081526004016102b7906106bf565b60405180910390fd5b6000856000600181106102d6576102d56106df565b5b602002015114955050505050509392505050565b6040518060200160405280600190602082028036833780820191505090505090565b6000604051905090565b600080fd5b600080fd5b600080fd5b6000601f19601f8301169050919050565b7f4e487b7100000000000000000000000000000000000000000000000000000000600052604160045260246000fd5b61036e82610325565b810181811067ffffffffffffffff8211171561038d5761038c610336565b5b80604052505050565b60006103a061030c565b90506103ac8282610365565b919050565b600067ffffffffffffffff8211156103cc576103cb610336565b5b602082029050602081019050919050565b600080fd5b6000819050919050565b6103f5816103e2565b811461040057600080fd5b50565b600081359050610412816103ec565b92915050565b600061042b610426846103b1565b610396565b9050808382526020820190506020840283018581111561044e5761044d6103dd565b5b835b8181101561047757806104638882610403565b845260208401935050602081019050610450565b5050509392505050565b600082601f83011261049657610495610320565b5b81356104a6848260208601610418565b91505092915050565b600080604083850312156104c6576104c5610316565b5b600083013567ffffffffffffffff8111156104e4576104e361031b565b5b6104f085828601610481565b925050602083013567ffffffffffffffff8111156105115761051061031b565b5b61051d85828601610481565b9150509250929050565b60008115159050919050565b61053c81610527565b82525050565b60006020820190506105576000830184610533565b92915050565b7f4e487b7100000000000000000000000000000000000000000000000000000000600052601260045260246000fd5b7f4e487b7100000000000000000000000000000000000000000000000000000000600052601160045260246000fd5b60006105c6826103e2565b91506105d1836103e2565b9250826105e1576105e061055d565b5b828204905092915050565b60006105f7826103e2565b9150610602836103e2565b9250828202610610816103e2565b915082820484148315176106275761062661058c565b5b5092915050565b6000610639826103e2565b9150610644836103e2565b925082820190508082111561065c5761065b61058c565b5b92915050565b600082825260208201905092915050565b7f50616972696e67204661696c6564000000000000000000000000000000000000600082015250565b60006106a9600e83610662565b91506106b482610673565b602082019050919050565b600060208201905081810360008301526106d88161069c565b9050919050565b7f4e487b7100000000000000000000000000000000000000000000000000000000600052603260045260246000fdfea26469706673582212201325842eeec5357a575920c02d3b84106443adf552000c4f7a04f77cb3bf8ec264736f6c63430008180033","opcodes":"PUSH1 0x80 PUSH1 0x40 MSTORE CALLVALUE DUP1 ISZERO PUSH3 0x11 JUMPI PUSH1 0x0 DUP1 REVERT JUMPDEST POP PUSH1 0x40 MLOAD PUSH3 0xA31 CODESIZE SUB DUP1 PUSH3 0xA31 DUP4 CODECOPY DUP2 DUP2 ADD PUSH1 0x40 MSTORE DUP2 ADD SWAP1 PUSH3 0x37 SWAP2 SWAP1 PUSH3 0x28C JUMP JUMPDEST DUP1 PUSH1 0x0 SWAP1 DUP1 MLOAD SWAP1 PUSH1 0x20 ADD SWAP1 PUSH3 0x4F SWAP3 SWAP2 SWAP1 PUSH3 0x57 JUMP JUMPDEST POP POP PUSH3 0x2DD JUMP JUMPDEST DUP3 DUP1 SLOAD DUP3 DUP3 SSTORE SWAP1 PUSH1 0x0 MSTORE PUSH1 0x20 PUSH1 0x0 KECCAK256 SWAP1 DUP2 ADD SWAP3 DUP3 ISZERO PUSH3 0x96 JUMPI SWAP2 PUSH1 0x20 MUL DUP3 ADD JUMPDEST DUP3 DUP2 GT ISZERO PUSH3 0x95 JUMPI DUP3 MLOAD DUP3 SSTORE SWAP2 PUSH1 0x20 ADD SWAP2 SWAP1 PUSH1 0x1 ADD SWAP1 PUSH3 0x78 JUMP JUMPDEST JUMPDEST POP SWAP1 POP PUSH3 0xA5 SWAP2 SWAP1 PUSH3 0xA9 JUMP JUMPDEST POP SWAP1 JUMP JUMPDEST JUMPDEST DUP1 DUP3 GT ISZERO PUSH3 0xC4 JUMPI PUSH1 0x0 DUP2 PUSH1 0x0 SWAP1 SSTORE POP PUSH1 0x1 ADD PUSH3 0xAA JUMP JUMPDEST POP SWAP1 JUMP JUMPDEST PUSH1 0x0 PUSH1 0x40 MLOAD SWAP1 POP SWAP1 JUMP JUMPDEST PUSH1 0x0 DUP1 REVERT JUMPDEST PUSH1 0x0 DUP1 REVERT JUMPDEST PUSH1 0x0 DUP1 REVERT JUMPDEST PUSH1 0x0 PUSH1 0x1F NOT PUSH1 0x1F DUP4 ADD AND SWAP1 POP SWAP2 SWAP1 POP JUMP JUMPDEST PUSH32 0x4E487B7100000000000000000000000000000000000000000000000000000000 PUSH1 0x0 MSTORE PUSH1 0x41 PUSH1 0x4 MSTORE PUSH1 0x24 PUSH1 0x0 REVERT JUMPDEST PUSH3 0x12C DUP3 PUSH3 0xE1 JUMP JUMPDEST DUP2 ADD DUP2 DUP2 LT PUSH8 0xFFFFFFFFFFFFFFFF DUP3 GT OR ISZERO PUSH3 0x14E JUMPI PUSH3 0x14D PUSH3 0xF2 JUMP JUMPDEST JUMPDEST DUP1 PUSH1 0x40 MSTORE POP POP POP JUMP JUMPDEST PUSH1 0x0 PUSH3 0x163 PUSH3 0xC8 JUMP JUMPDEST SWAP1 POP PUSH3 0x171 DUP3 DUP3 PUSH3 0x121 JUMP JUMPDEST SWAP2 SWAP1 POP JUMP JUMPDEST PUSH1 0x0 PUSH8 0xFFFFFFFFFFFFFFFF DUP3 GT ISZERO PUSH3 0x194 JUMPI PUSH3 0x193 PUSH3 0xF2 JUMP JUMPDEST JUMPDEST PUSH1 0x20 DUP3 MUL SWAP1 POP PUSH1 0x20 DUP2 ADD SWAP1 POP SWAP2 SWAP1 POP JUMP JUMPDEST PUSH1 0x0 DUP1 REVERT JUMPDEST PUSH1 0x0 DUP2 SWAP1 POP SWAP2 SWAP1 POP JUMP JUMPDEST PUSH3 0x1BF DUP2 PUSH3 0x1AA JUMP JUMPDEST DUP2 EQ PUSH3 0x1CB JUMPI PUSH1 0x0 DUP1 REVERT JUMPDEST POP JUMP JUMPDEST PUSH1 0x0 DUP2 MLOAD SWAP1 POP PUSH3 0x1DF DUP2 PUSH3 0x1B4 JUMP JUMPDEST SWAP3 SWAP2 POP POP JUMP JUMPDEST PUSH1 0x0 PUSH3 0x1FC PUSH3 0x1F6 DUP5 PUSH3 0x176 JUMP JUMPDEST PUSH3 0x157 JUMP JUMPDEST SWAP1 POP DUP1 DUP4 DUP3 MSTORE PUSH1 0x20 DUP3 ADD SWAP1 POP PUSH1 0x20 DUP5 MUL DUP4 ADD DUP6 DUP2 GT ISZERO PUSH3 0x222 JUMPI PUSH3 0x221 PUSH3 0x1A5 JUMP JUMPDEST JUMPDEST DUP4 JUMPDEST DUP2 DUP2 LT ISZERO PUSH3 0x24F JUMPI DUP1 PUSH3 0x23A DUP9 DUP3 PUSH3 0x1CE JUMP JUMPDEST DUP5 MSTORE PUSH1 0x20 DUP5 ADD SWAP4 POP POP PUSH1 0x20 DUP2 ADD SWAP1 POP PUSH3 0x224 JUMP JUMPDEST POP POP POP SWAP4 SWAP3 POP POP POP JUMP JUMPDEST PUSH1 0x0 DUP3 PUSH1 0x1F DUP4 ADD SLT PUSH3 0x271 JUMPI PUSH3 0x270 PUSH3 0xDC JUMP JUMPDEST JUMPDEST DUP2 MLOAD PUSH3 0x283 DUP5 DUP3 PUSH1 0x20 DUP7 ADD PUSH3 0x1E5 JUMP JUMPDEST SWAP2 POP POP SWAP3 SWAP2 POP POP JUMP JUMPDEST PUSH1 0x0 PUSH1 0x20 DUP3 DUP5 SUB SLT ISZERO PUSH3 0x2A5 JUMPI PUSH3 0x2A4 PUSH3 0xD2 JUMP JUMPDEST JUMPDEST PUSH1 0x0 DUP3 ADD MLOAD PUSH8 0xFFFFFFFFFFFFFFFF DUP2 GT ISZERO PUSH3 0x2C6 JUMPI PUSH3 0x2C5 PUSH3 0xD7 JUMP JUMPDEST JUMPDEST PUSH3 0x2D4 DUP5 DUP3 DUP6 ADD PUSH3 0x259 JUMP JUMPDEST SWAP2 POP POP SWAP3 SWAP2 POP POP JUMP JUMPDEST PUSH2 0x744 DUP1 PUSH3 0x2ED PUSH1 0x0 CODECOPY PUSH1 0x0 RETURN INVALID PUSH1 0x80 PUSH1 0x40 MSTORE CALLVALUE DUP1 ISZERO PUSH2 0x10 JUMPI PUSH1 0x0 DUP1 REVERT JUMPDEST POP PUSH1 0x4 CALLDATASIZE LT PUSH2 0x2B JUMPI PUSH1 0x0 CALLDATALOAD PUSH1 0xE0 SHR DUP1 PUSH4 0xB864F5A9 EQ PUSH2 0x30 JUMPI JUMPDEST PUSH1 0x0 DUP1 REVERT JUMPDEST PUSH2 0x4A PUSH1 0x4 DUP1 CALLDATASIZE SUB DUP2 ADD SWAP1 PUSH2 0x45 SWAP2 SWAP1 PUSH2 0x4AF JUMP JUMPDEST PUSH2 0x60 JUMP JUMPDEST PUSH1 0x40 MLOAD PUSH2 0x57 SWAP2 SWAP1 PUSH2 0x542 JUMP JUMPDEST PUSH1 0x40 MLOAD DUP1 SWAP2 SUB SWAP1 RETURN JUMPDEST PUSH1 0x0 PUSH2 0x6E PUSH1 0x0 DUP5 DUP5 PUSH2 0x76 JUMP JUMPDEST SWAP1 POP SWAP3 SWAP2 POP POP JUMP JUMPDEST PUSH1 0x0 PUSH2 0x80 PUSH2 0x2EA JUMP JUMPDEST PUSH1 0x0 DUP1 PUSH1 0x0 PUSH1 0x2 DUP8 MLOAD PUSH2 0x93 SWAP2 SWAP1 PUSH2 0x5BB JUMP JUMPDEST SWAP1 POP PUSH1 0x0 PUSH1 0x6 DUP3 PUSH1 0x6 PUSH2 0xA6 SWAP2 SWAP1 PUSH2 0x5EC JUMP JUMPDEST PUSH2 0xB0 SWAP2 SWAP1 PUSH2 0x62E JUMP JUMPDEST PUSH8 0xFFFFFFFFFFFFFFFF DUP2 GT ISZERO PUSH2 0xC9 JUMPI PUSH2 0xC8 PUSH2 0x336 JUMP JUMPDEST JUMPDEST PUSH1 0x40 MLOAD SWAP1 DUP1 DUP3 MSTORE DUP1 PUSH1 0x20 MUL PUSH1 0x20 ADD DUP3 ADD PUSH1 0x40 MSTORE DUP1 ISZERO PUSH2 0xF7 JUMPI DUP2 PUSH1 0x20 ADD PUSH1 0x20 DUP3 MUL DUP1 CALLDATASIZE DUP4 CALLDATACOPY DUP1 DUP3 ADD SWAP2 POP POP SWAP1 POP JUMPDEST POP SWAP1 POP PUSH1 0x20 DUP8 ADD PUSH1 0x20 DUP10 ADD DUP11 DUP4 MSTORE PUSH1 0x20 DUP4 KECCAK256 SWAP5 POP PUSH1 0x0 JUMPDEST PUSH1 0x1 DUP6 SUB DUP2 LT ISZERO PUSH2 0x193 JUMPI DUP2 PUSH1 0x40 DUP3 MUL ADD MLOAD DUP5 PUSH1 0xC0 DUP4 MUL ADD MSTORE DUP2 PUSH1 0x20 PUSH1 0x40 DUP4 MUL ADD ADD MLOAD DUP5 PUSH1 0x20 PUSH1 0xC0 DUP5 MUL ADD ADD MSTORE PUSH1 0x4 DUP2 MUL DUP7 ADD SLOAD DUP5 PUSH1 0x40 PUSH1 0xC0 DUP5 MUL ADD ADD MSTORE PUSH1 0x1 PUSH1 0x4 DUP3 MUL ADD DUP7 ADD SLOAD DUP5 PUSH1 0x60 PUSH1 0xC0 DUP5 MUL ADD ADD MSTORE PUSH1 0x2 PUSH1 0x4 DUP3 MUL ADD DUP7 ADD SLOAD DUP5 PUSH1 0x80 PUSH1 0xC0 DUP5 MUL ADD ADD MSTORE PUSH1 0x3 PUSH1 0x4 DUP3 MUL ADD DUP7 ADD SLOAD DUP5 PUSH1 0xA0 PUSH1 0xC0 DUP5 MUL ADD ADD MSTORE PUSH1 0x1 DUP2 ADD SWAP1 POP PUSH2 0x10E JUMP JUMPDEST POP DUP2 MLOAD PUSH1 0xC0 DUP5 PUSH1 0xC0 DUP8 MUL ADD SUB MSTORE PUSH1 0x20 DUP3 ADD MLOAD PUSH1 0xA0 DUP5 PUSH1 0xC0 DUP8 MUL ADD SUB MSTORE PUSH1 0x4 DUP1 DUP6 MUL SUB DUP6 ADD SLOAD PUSH1 0x80 DUP5 PUSH1 0xC0 DUP8 MUL ADD SUB MSTORE PUSH1 0x3 PUSH1 0x4 DUP6 MUL SUB DUP6 ADD SLOAD PUSH1 0x60 DUP5 PUSH1 0xC0 DUP8 MUL ADD SUB MSTORE PUSH1 0x2 PUSH1 0x4 DUP6 MUL SUB DUP6 ADD SLOAD PUSH1 0x40 DUP5 PUSH1 0xC0 DUP8 MUL ADD SUB MSTORE PUSH1 0x1 PUSH1 0x4 DUP6 MUL SUB DUP6 ADD SLOAD PUSH1 0x20 DUP5 PUSH1 0xC0 DUP8 MUL ADD SUB MSTORE PUSH1 0x40 DUP3 ADD MLOAD DUP4 PUSH1 0xC0 DUP7 MUL ADD MSTORE PUSH1 0x60 DUP3 ADD MLOAD DUP4 PUSH1 0x20 PUSH1 0xC0 DUP8 MUL ADD ADD MSTORE PUSH1 0x4 DUP5 MUL DUP6 ADD SLOAD DUP4 PUSH1 0x40 PUSH1 0xC0 DUP8 MUL ADD ADD MSTORE PUSH1 0x1 PUSH1 0x4 DUP6 MUL ADD DUP6 ADD SLOAD DUP4 PUSH1 0x60 PUSH1 0xC0 DUP8 MUL ADD ADD MSTORE PUSH1 0x2 PUSH1 0x4 DUP6 MUL ADD DUP6 ADD SLOAD DUP4 PUSH1 0x80 PUSH1 0xC0 DUP8 MUL ADD ADD MSTORE PUSH1 0x3 PUSH1 0x4 DUP6 MUL ADD DUP6 ADD SLOAD DUP4 PUSH1 0xA0 PUSH1 0xC0 DUP8 MUL ADD ADD MSTORE PUSH1 0x20 DUP8 PUSH1 0xC0 PUSH1 0x1 DUP8 ADD MUL DUP6 PUSH1 0x0 PUSH1 0x8 PUSH2 0x7D0 GAS SUB CALL SWAP6 POP POP POP DUP4 ISZERO PUSH2 0x2C0 JUMPI PUSH1 0x40 MLOAD PUSH32 0x8C379A000000000000000000000000000000000000000000000000000000000 DUP2 MSTORE PUSH1 0x4 ADD PUSH2 0x2B7 SWAP1 PUSH2 0x6BF JUMP JUMPDEST PUSH1 0x40 MLOAD DUP1 SWAP2 SUB SWAP1 REVERT JUMPDEST PUSH1 0x0 DUP6 PUSH1 0x0 PUSH1 0x1 DUP2 LT PUSH2 0x2D6 JUMPI PUSH2 0x2D5 PUSH2 0x6DF JUMP JUMPDEST JUMPDEST PUSH1 0x20 MUL ADD MLOAD EQ SWAP6 POP POP POP POP POP POP SWAP4 SWAP3 POP POP POP JUMP JUMPDEST PUSH1 0x40 MLOAD DUP1 PUSH1 0x20 ADD PUSH1 0x40 MSTORE DUP1 PUSH1 0x1 SWAP1 PUSH1 0x20 DUP3 MUL DUP1 CALLDATASIZE DUP4 CALLDATACOPY DUP1 DUP3 ADD SWAP2 POP POP SWAP1 POP POP SWAP1 JUMP JUMPDEST PUSH1 0x0 PUSH1 0x40 MLOAD SWAP1 POP SWAP1 JUMP JUMPDEST PUSH1 0x0 DUP1 REVERT JUMPDEST PUSH1 0x0 DUP1 REVERT JUMPDEST PUSH1 0x0 DUP1 REVERT JUMPDEST PUSH1 0x0 PUSH1 0x1F NOT PUSH1 0x1F DUP4 ADD AND SWAP1 POP SWAP2 SWAP1 POP JUMP JUMPDEST PUSH32 0x4E487B7100000000000000000000000000000000000000000000000000000000 PUSH1 0x0 MSTORE PUSH1 0x41 PUSH1 0x4 MSTORE PUSH1 0x24 PUSH1 0x0 REVERT JUMPDEST PUSH2 0x36E DUP3 PUSH2 0x325 JUMP JUMPDEST DUP2 ADD DUP2 DUP2 LT PUSH8 0xFFFFFFFFFFFFFFFF DUP3 GT OR ISZERO PUSH2 0x38D JUMPI PUSH2 0x38C PUSH2 0x336 JUMP JUMPDEST JUMPDEST DUP1 PUSH1 0x40 MSTORE POP POP POP JUMP JUMPDEST PUSH1 0x0 PUSH2 0x3A0 PUSH2 0x30C JUMP JUMPDEST SWAP1 POP PUSH2 0x3AC DUP3 DUP3 PUSH2 0x365 JUMP JUMPDEST SWAP2 SWAP1 POP JUMP JUMPDEST PUSH1 0x0 PUSH8 0xFFFFFFFFFFFFFFFF DUP3 GT ISZERO PUSH2 0x3CC JUMPI PUSH2 0x3CB PUSH2 0x336 JUMP JUMPDEST JUMPDEST PUSH1 0x20 DUP3 MUL SWAP1 POP PUSH1 0x20 DUP2 ADD SWAP1 POP SWAP2 SWAP1 POP JUMP JUMPDEST PUSH1 0x0 DUP1 REVERT JUMPDEST PUSH1 0x0 DUP2 SWAP1 POP SWAP2 SWAP1 POP JUMP JUMPDEST PUSH2 0x3F5 DUP2 PUSH2 0x3E2 JUMP JUMPDEST DUP2 EQ PUSH2 0x400 JUMPI PUSH1 0x0 DUP1 REVERT JUMPDEST POP JUMP JUMPDEST PUSH1 0x0 DUP2 CALLDATALOAD SWAP1 POP PUSH2 0x412 DUP2 PUSH2 0x3EC JUMP JUMPDEST SWAP3 SWAP2 POP POP JUMP JUMPDEST PUSH1 0x0 PUSH2 0x42B PUSH2 0x426 DUP5 PUSH2 0x3B1 JUMP JUMPDEST PUSH2 0x396 JUMP JUMPDEST SWAP1 POP DUP1 DUP4 DUP3 MSTORE PUSH1 0x20 DUP3 ADD SWAP1 POP PUSH1 0x20 DUP5 MUL DUP4 ADD DUP6 DUP2 GT ISZERO PUSH2 0x44E JUMPI PUSH2 0x44D PUSH2 0x3DD JUMP JUMPDEST JUMPDEST DUP4 JUMPDEST DUP2 DUP2 LT ISZERO PUSH2 0x477 JUMPI DUP1 PUSH2 0x463 DUP9 DUP3 PUSH2 0x403 JUMP JUMPDEST DUP5 MSTORE PUSH1 0x20 DUP5 ADD SWAP4 POP POP PUSH1 0x20 DUP2 ADD SWAP1 POP PUSH2 0x450 JUMP JUMPDEST POP POP POP SWAP4 SWAP3 POP POP POP JUMP JUMPDEST PUSH1 0x0 DUP3 PUSH1 0x1F DUP4 ADD SLT PUSH2 0x496 JUMPI PUSH2 0x495 PUSH2 0x320 JUMP JUMPDEST JUMPDEST DUP2 CALLDATALOAD PUSH2 0x4A6 DUP5 DUP3 PUSH1 0x20 DUP7 ADD PUSH2 0x418 JUMP JUMPDEST SWAP2 POP POP SWAP3 SWAP2 POP POP JUMP JUMPDEST PUSH1 0x0 DUP1 PUSH1 0x40 DUP4 DUP6 SUB SLT ISZERO PUSH2 0x4C6 JUMPI PUSH2 0x4C5 PUSH2 0x316 JUMP JUMPDEST JUMPDEST PUSH1 0x0 DUP4 ADD CALLDATALOAD PUSH8 0xFFFFFFFFFFFFFFFF DUP2 GT ISZERO PUSH2 0x4E4 JUMPI PUSH2 0x4E3 PUSH2 0x31B JUMP JUMPDEST JUMPDEST PUSH2 0x4F0 DUP6 DUP3 DUP7 ADD PUSH2 0x481 JUMP JUMPDEST SWAP3 POP POP PUSH1 0x20 DUP4 ADD CALLDATALOAD PUSH8 0xFFFFFFFFFFFFFFFF DUP2 GT ISZERO PUSH2 0x511 JUMPI PUSH2 0x510 PUSH2 0x31B JUMP JUMPDEST JUMPDEST PUSH2 0x51D DUP6 DUP3 DUP7 ADD PUSH2 0x481 JUMP JUMPDEST SWAP2 POP POP SWAP3 POP SWAP3 SWAP1 POP JUMP JUMPDEST PUSH1 0x0 DUP2 ISZERO ISZERO SWAP1 POP SWAP2 SWAP1 POP JUMP JUMPDEST PUSH2 0x53C DUP2 PUSH2 0x527 JUMP JUMPDEST DUP3 MSTORE POP POP JUMP JUMPDEST PUSH1 0x0 PUSH1 0x20 DUP3 ADD SWAP1 POP PUSH2 0x557 PUSH1 0x0 DUP4 ADD DUP5 PUSH2 0x533 JUMP JUMPDEST SWAP3 SWAP2 POP POP JUMP JUMPDEST PUSH32 0x4E487B7100000000000000000000000000000000000000000000000000000000 PUSH1 0x0 MSTORE PUSH1 0x12 PUSH1 0x4 MSTORE PUSH1 0x24 PUSH1 0x0 REVERT JUMPDEST PUSH32 0x4E487B7100000000000000000000000000000000000000000000000000000000 PUSH1 0x0 MSTORE PUSH1 0x11 PUSH1 0x4 MSTORE PUSH1 0x24 PUSH1 0x0 REVERT JUMPDEST PUSH1 0x0 PUSH2 0x5C6 DUP3 PUSH2 0x3E2 JUMP JUMPDEST SWAP2 POP PUSH2 0x5D1 DUP4 PUSH2 0x3E2 JUMP JUMPDEST SWAP3 POP DUP3 PUSH2 0x5E1 JUMPI PUSH2 0x5E0 PUSH2 0x55D JUMP JUMPDEST JUMPDEST DUP3 DUP3 DIV SWAP1 POP SWAP3 SWAP2 POP POP JUMP JUMPDEST PUSH1 0x0 PUSH2 0x5F7 DUP3 PUSH2 0x3E2 JUMP JUMPDEST SWAP2 POP PUSH2 0x602 DUP4 PUSH2 0x3E2 JUMP JUMPDEST SWAP3 POP DUP3 DUP3 MUL PUSH2 0x610 DUP2 PUSH2 0x3E2 JUMP JUMPDEST SWAP2 POP DUP3 DUP3 DIV DUP5 EQ DUP4 ISZERO OR PUSH2 0x627 JUMPI PUSH2 0x626 PUSH2 0x58C JUMP JUMPDEST JUMPDEST POP SWAP3 SWAP2 POP POP JUMP JUMPDEST PUSH1 0x0 PUSH2 0x639 DUP3 PUSH2 0x3E2 JUMP JUMPDEST SWAP2 POP PUSH2 0x644 DUP4 PUSH2 0x3E2 JUMP JUMPDEST SWAP3 POP DUP3 DUP3 ADD SWAP1 POP DUP1 DUP3 GT ISZERO PUSH2 0x65C JUMPI PUSH2 0x65B PUSH2 0x58C JUMP JUMPDEST JUMPDEST SWAP3 SWAP2 POP POP JUMP JUMPDEST PUSH1 0x0 DUP3 DUP3 MSTORE PUSH1 0x20 DUP3 ADD SWAP1 POP SWAP3 SWAP2 POP POP JUMP JUMPDEST PUSH32 0x50616972696E67204661696C6564000000000000000000000000000000000000 PUSH1 0x0 DUP3 ADD MSTORE POP JUMP JUMPDEST PUSH1 0x0 PUSH2 0x6A9 PUSH1 0xE DUP4 PUSH2 0x662 JUMP JUMPDEST SWAP2 POP PUSH2 0x6B4 DUP3 PUSH2 0x673 JUMP JUMPDEST PUSH1 0x20 DUP3 ADD SWAP1 POP SWAP2 SWAP1 POP JUMP JUMPDEST PUSH1 0x0 PUSH1 0x20 DUP3 ADD SWAP1 POP DUP2 DUP2 SUB PUSH1 0x0 DUP4 ADD MSTORE PUSH2 0x6D8 DUP2 PUSH2 0x69C JUMP JUMPDEST SWAP1 POP SWAP2 SWAP1 POP JUMP JUMPDEST PUSH32 0x4E487B7100000000000000000000000000000000000000000000000000000000 PUSH1 0x0 MSTORE PUSH1 0x32 PUSH1 0x4 MSTORE PUSH1 0x24 PUSH1 0x0 REVERT INVALID LOG2 PUSH5 0x6970667358 0x22 SLT KECCAK256 SGT 0x25 DUP5 0x2E 0xEE 0xC5 CALLDATALOAD PUSH27 0x575920C02D3B84106443ADF552000C4F7A04F77CB3BF8EC264736F PUSH13 0x63430008180033000000000000 "},"methodIdentifiers":{"verify(uint256[],uint256[])":"b864f5a9"}}}}}