{
  "_format": "hh-sol-artifact-1",
  "contractName": "cpLinkVerify",
  "sourceName": "contracts/verify.sol",
  "abi": [
    {
      "inputs": [
        {
          "internalType": "uint256[]",
          "name": "_vk_link",
          "type": "uint256[]"
        }
      ],
      "stateMutability": "nonpayable",
      "type": "constructor"
    },
    {
      "inputs": [
        {
          "internalType": "uint256[]",
          "name": "instance",
          "type": "uint256[]"
        },
        {
          "internalType": "uint256[]",
          "name": "proof",
          "type": "uint256[]"
        }
      ],
      "name": "verify",
      "outputs": [
        {
          "internalType": "bool",
          "name": "",
          "type": "bool"
        }
      ],
      "stateMutability": "nonpayable",
      "type": "function"
    }
  ],
  "bytecode": "0x60806040523480156200001157600080fd5b5060405162000a3138038062000a3183398181016040528101906200003791906200028c565b80600090805190602001906200004f92919062000057565b5050620002dd565b82805482825590600052602060002090810192821562000096579160200282015b828111156200009557825182559160200191906001019062000078565b5b509050620000a59190620000a9565b5090565b5b80821115620000c4576000816000905550600101620000aa565b5090565b6000604051905090565b600080fd5b600080fd5b600080fd5b6000601f19601f8301169050919050565b7f4e487b7100000000000000000000000000000000000000000000000000000000600052604160045260246000fd5b6200012c82620000e1565b810181811067ffffffffffffffff821117156200014e576200014d620000f2565b5b80604052505050565b600062000163620000c8565b905062000171828262000121565b919050565b600067ffffffffffffffff821115620001945762000193620000f2565b5b602082029050602081019050919050565b600080fd5b6000819050919050565b620001bf81620001aa565b8114620001cb57600080fd5b50565b600081519050620001df81620001b4565b92915050565b6000620001fc620001f68462000176565b62000157565b90508083825260208201905060208402830185811115620002225762000221620001a5565b5b835b818110156200024f57806200023a8882620001ce565b84526020840193505060208101905062000224565b5050509392505050565b600082601f830112620002715762000270620000dc565b5b815162000283848260208601620001e5565b91505092915050565b600060208284031215620002a557620002a4620000d2565b5b600082015167ffffffffffffffff811115620002c657620002c5620000d7565b5b620002d48482850162000259565b91505092915050565b61074480620002ed6000396000f3fe608060405234801561001057600080fd5b506004361061002b5760003560e01c8063b864f5a914610030575b600080fd5b61004a600480360381019061004591906104af565b610060565b6040516100579190610542565b60405180910390f35b600061006e60008484610076565b905092915050565b60006100806102ea565b60008060006002875161009391906105bb565b9050600060068260066100a691906105ec565b6100b0919061062e565b67ffffffffffffffff8111156100c9576100c8610336565b5b6040519080825280602002602001820160405280156100f75781602001602082028036833780820191505090505b50905060208701602089018a835260208320945060005b6001850381101561019357816040820201518460c0830201528160206040830201015184602060c084020101526004810286015484604060c084020101526001600482020186015484606060c084020101526002600482020186015484608060c08402010152600360048202018601548460a060c0840201015260018101905061010e565b50815160c08460c08702010352602082015160a08460c0870201035260048085020385015460808460c087020103526003600485020385015460608460c087020103526002600485020385015460408460c087020103526001600485020385015460208460c0870201035260408201518360c086020152606082015183602060c087020101526004840285015483604060c087020101526001600485020185015483606060c087020101526002600485020185015483608060c08702010152600360048502018501548360a060c0870201015260208760c0600187010285600060086107d05a03f19550505083156102c0576040517f08c379a00000000000000000000000000000000000000000000000000000000081526004016102b7906106bf565b60405180910390fd5b6000856000600181106102d6576102d56106df565b5b602002015114955050505050509392505050565b6040518060200160405280600190602082028036833780820191505090505090565b6000604051905090565b600080fd5b600080fd5b600080fd5b6000601f19601f8301169050919050565b7f4e487b7100000000000000000000000000000000000000000000000000000000600052604160045260246000fd5b61036e82610325565b810181811067ffffffffffffffff8211171561038d5761038c610336565b5b80604052505050565b60006103a061030c565b90506103ac8282610365565b919050565b600067ffffffffffffffff8211156103cc576103cb610336565b5b602082029050602081019050919050565b600080fd5b6000819050919050565b6103f5816103e2565b811461040057600080fd5b50565b600081359050610412816103ec565b92915050565b600061042b610426846103b1565b610396565b9050808382526020820190506020840283018581111561044e5761044d6103dd565b5b835b8181101561047757806104638882610403565b845260208401935050602081019050610450565b5050509392505050565b600082601f83011261049657610495610320565b5b81356104a6848260208601610418565b91505092915050565b600080604083850312156104c6576104c5610316565b5b600083013567ffffffffffffffff8111156104e4576104e361031b565b5b6104f085828601610481565b925050602083013567ffffffffffffffff8111156105115761051061031b565b5b61051d85828601610481565b9150509250929050565b60008115159050919050565b61053c81610527565b82525050565b60006020820190506105576000830184610533565b92915050565b7f4e487b7100000000000000000000000000000000000000000000000000000000600052601260045260246000fd5b7f4e487b7100000000000000000000000000000000000000000000000000000000600052601160045260246000fd5b60006105c6826103e2565b91506105d1836103e2565b9250826105e1576105e061055d565b5b828204905092915050565b60006105f7826103e2565b9150610602836103e2565b9250828202610610816103e2565b915082820484148315176106275761062661058c565b5b5092915050565b6000610639826103e2565b9150610644836103e2565b925082820190508082111561065c5761065b61058c565b5b92915050565b600082825260208201905092915050565b7f50616972696e67204661696c6564000000000000000000000000000000000000600082015250565b60006106a9600e83610662565b91506106b482610673565b602082019050919050565b600060208201905081810360008301526106d88161069c565b9050919050565b7f4e487b7100000000000000000000000000000000000000000000000000000000600052603260045260246000fdfea26469706673582212201325842eeec5357a575920c02d3b84106443adf552000c4f7a04f77cb3bf8ec264736f6c63430008180033",
  "linkReferences": {},
  "deployedLinkReferences": {}
}